S00E0000494E54315F432E7372656358
S113000012C019C019C017C016C015C014C013C03F
S113001012C011C010C00FC00EC00DC00CC00BC068
S11300200AC009C008C011241FBECFE5D4E0DEBF5A
S1130030CDBF26D14CC2E4CF1F920F9200905F0037
S11300400F9211242F933F934F935F936F937F935A
S11300508F939F93AF93BF93EF93FF93CF93DF93CC
S1130060CDB7DEB76E97DEBFCDBF81E090E09A8357
S11300708983E6C088E390E021E0FC01208380E0EE
S113008090E0AAE7B4E48B839C83AD83BE8320E035
S113009030E04AE753E46B817C818D819E818CD171
S11300A0DC01CB018D8B9E8BAF8BB88F20E030E0D1
S11300B040E85FE36D897E898F89988DFCD0882321
S11300C02CF481E090E09A8F898F3BC020E03FEFD1
S11300D04FE757E46D897E898F89988D69D1181609
S11300E03CF520E030E040E251E46B817C818D817D
S11300F09E8162D1DC01CB01BC01CD01E0D0DC01E9
S1130100CB019A8F898F0FC089E190E09C8F8B8FF0
S11301108B8D9C8D0197F1F79C8F8B8F898D9A8D98
S113012001979A8F898F898D9A8D892B69F713C0CE
S11301306D897E898F89988DC2D0DC01CB019A8F1D
S1130140898F898D9A8D9E8F8D8F8D8D9E8D019730
S1130150F1F79E8F8D8F88E390E0FC01108280E0A0
S113016090E0AAE7B4E48F839887A987BA8720E050
S113017030E04AE753E46F81788589859A851CD1FC
S1130180DC01CB018B879C87AD87BE8720E030E004
S113019040E85FE36B857C858D859E858CD08823C4
S11301A02CF481E090E0988B8F873BC020E03FEFF8
S11301B04FE757E46B857C858D859E85F9D01816AD
S11301C03CF520E030E040E251E46F817885898598
S11301D09A85F2D0DC01CB01BC01CD0170D0DC01E9
S11301E0CB01988B8F870FC089E190E09A8B898B24
S11301F089899A890197F1F79A8B898B8F859889D8
S11302000197988B8F878F859889892B69F713C0FD
S11302106B857C858D859E8552D0DC01CB01988BC6
S11302208F878F8598899C8B8B8B8B899C89019771
S1130230F1F79C8B8B8B89819A8101969A838983B0
S113024089819A810B970CF415CF00006E960FB636
S1130250F894DEBF0FBECDBFDF91CF91FF91EF9138
S1130260BF91AF919F918F917F916F915F914F91CA
S11302703F912F910F9000925F000F901F9018955F
S1130280CF93DF93CDB7DEB781E390E0FC0110821A
S113029087E390E0FC01108285E590E0FC01108288
S11302A08BE590E020E8FC01208388E390E0FC01EA
S11302B010827894FFCF2FD008F481E0089557D0AE
S11302C088F09F5790F0B92F9927B751A0F0D1F03B
S11302D0660F771F881F991F1AF0BA95C9F712C0C5
S11302E0B13081F05ED0B1E008955BC0672F782F04
S11302F08827B85F39F0B93FCCF386957795679531
S1130300B395D9F73EF490958095709561957F4F9C
S11303108F4F9F4F0895990F0008550FAA0BE0E8DF
S1130320FEEF16161706E807F907C0F012161306B3
S1130330E407F50798F0621B730B840B950B39F4F3
S11303400A2661F0232B242B252B21F408950A2659
S113035009F4A140A6958FEF811D811D089557FDD5
S11303609058440F551F59F05F3F71F04795880F1F
S113037097FB991F61F09F3F79F0879508951216B6
S113038013061406551FF2CF4695F1DF08C0161662
S113039017061806991FF1CF869571056105089413
S11303A00895E894BB2766277727CB0197F908952A
S11303B0B2DF08F48FEF08950BD078C069D028F02D
S11303C06ED018F0952309F05AC05FC01124EACF0B
S11303D0C6DFA0F3959FD1F3950F50E0551F629FA0
S11303E0F001729FBB27F00DB11D639FAA27F00D8A
S11303F0B11DAA1F649F6627B00DA11D661F829FB1
S11304002227B00DA11D621F739FB00DA11D621F95
S1130410839FA00D611D221F749F3327A00D611DB2
S1130420231F849F600D211D822F762F6A2F112494
S11304309F5750408AF0E1F088234AF0EE0FFF1FE7
S1130440BB1F661F771F881F91505040A9F79E3F1E
S1130450510570F014C0A6CF5F3FECF3983EDCF377
S1130460869577956795B795F795E7959F5FC1F75B
S1130470FE2B880F911D9695879597F9089597F906
S11304809F6780E870E060E008959FEF80EC089536
S113049000240A941616170618060906089500245F
S11304A00A9412161306140605060895092E0394D9
S11304B0000C11F4882352F0BB0F40F4BF2B11F44D
S11304C060FF04C06F5F7F4F8F4F9F4F0895F89474
S10504D0FFCF58
S9030000FC
